{
  "contractName": "TitanKey",
  "abi": [
    {
      "constant": true,
      "inputs": [],
      "name": "name",
      "outputs": [
        {
          "name": "",
          "type": "bytes32"
        }
      ],
      "payable": false,
      "stateMutability": "view",
      "type": "function"
    },
    {
      "constant": false,
      "inputs": [
        {
          "name": "_spender",
          "type": "address"
        },
        {
          "name": "_value",
          "type": "uint256"
        }
      ],
      "name": "approve",
      "outputs": [
        {
          "name": "",
          "type": "bool"
        }
      ],
      "payable": false,
      "stateMutability": "nonpayable",
      "type": "function"
    },
    {
      "constant": true,
      "inputs": [
        {
          "name": "_titanName",
          "type": "bytes32"
        },
        {
          "name": "_cur",
          "type": "bytes32"
        }
      ],
      "name": "getPublicKeyByName",
      "outputs": [
        {
          "name": "_publicKey",
          "type": "bytes32"
        }
      ],
      "payable": false,
      "stateMutability": "view",
      "type": "function"
    },
    {
      "constant": true,
      "inputs": [],
      "name": "getPublicKeys",
      "outputs": [
        {
          "name": "_publicKeys",
          "type": "bytes32[]"
        },
        {
          "name": "_keyNames",
          "type": "bytes32[]"
        },
        {
          "name": "_currency",
          "type": "bytes32[]"
        },
        {
          "name": "_isDefault",
          "type": "bool[]"
        },
        {
          "name": "_lastChange",
          "type": "uint256[]"
        }
      ],
      "payable": false,
      "stateMutability": "view",
      "type": "function"
    },
    {
      "constant": true,
      "inputs": [],
      "name": "totalSupply",
      "outputs": [
        {
          "name": "",
          "type": "uint256"
        }
      ],
      "payable": false,
      "stateMutability": "view",
      "type": "function"
    },
    {
      "constant": false,
      "inputs": [
        {
          "name": "_from",
          "type": "address"
        },
        {
          "name": "_to",
          "type": "address"
        },
        {
          "name": "_value",
          "type": "uint256"
        }
      ],
      "name": "transferFrom",
      "outputs": [
        {
          "name": "",
          "type": "bool"
        }
      ],
      "payable": false,
      "stateMutability": "nonpayable",
      "type": "function"
    },
    {
      "constant": true,
      "inputs": [],
      "name": "INITIAL_SUPPLY",
      "outputs": [
        {
          "name": "",
          "type": "uint256"
        }
      ],
      "payable": false,
      "stateMutability": "view",
      "type": "function"
    },
    {
      "constant": true,
      "inputs": [],
      "name": "decimals",
      "outputs": [
        {
          "name": "",
          "type": "uint256"
        }
      ],
      "payable": false,
      "stateMutability": "view",
      "type": "function"
    },
    {
      "constant": true,
      "inputs": [],
      "name": "getCurFromUser",
      "outputs": [
        {
          "name": "",
          "type": "bytes32[]"
        }
      ],
      "payable": false,
      "stateMutability": "view",
      "type": "function"
    },
    {
      "constant": true,
      "inputs": [
        {
          "name": "_titanName",
          "type": "bytes32"
        }
      ],
      "name": "isNameAvailable",
      "outputs": [
        {
          "name": "",
          "type": "bool"
        }
      ],
      "payable": false,
      "stateMutability": "view",
      "type": "function"
    },
    {
      "constant": true,
      "inputs": [],
      "name": "userLogin",
      "outputs": [
        {
          "name": "",
          "type": "bytes32"
        },
        {
          "name": "",
          "type": "bytes32"
        },
        {
          "name": "",
          "type": "bytes32"
        }
      ],
      "payable": false,
      "stateMutability": "view",
      "type": "function"
    },
    {
      "constant": false,
      "inputs": [
        {
          "name": "_firstName",
          "type": "bytes32"
        },
        {
          "name": "_lastName",
          "type": "bytes32"
        },
        {
          "name": "_email",
          "type": "bytes32"
        },
        {
          "name": "emailIsName",
          "type": "bool"
        },
        {
          "name": "_timestamp",
          "type": "uint256"
        }
      ],
      "name": "userSignUp",
      "outputs": [],
      "payable": false,
      "stateMutability": "nonpayable",
      "type": "function"
    },
    {
      "constant": false,
      "inputs": [
        {
          "name": "_firstName",
          "type": "bytes32"
        },
        {
          "name": "_lastName",
          "type": "bytes32"
        },
        {
          "name": "_email",
          "type": "bytes32"
        }
      ],
      "name": "userUpdate",
      "outputs": [],
      "payable": false,
      "stateMutability": "nonpayable",
      "type": "function"
    },
    {
      "constant": false,
      "inputs": [
        {
          "name": "_spender",
          "type": "address"
        },
        {
          "name": "_subtractedValue",
          "type": "uint256"
        }
      ],
      "name": "decreaseApproval",
      "outputs": [
        {
          "name": "",
          "type": "bool"
        }
      ],
      "payable": false,
      "stateMutability": "nonpayable",
      "type": "function"
    },
    {
      "constant": true,
      "inputs": [
        {
          "name": "",
          "type": "uint256"
        }
      ],
      "name": "validCurrencies",
      "outputs": [
        {
          "name": "",
          "type": "bytes32"
        }
      ],
      "payable": false,
      "stateMutability": "view",
      "type": "function"
    },
    {
      "constant": true,
      "inputs": [
        {
          "name": "_owner",
          "type": "address"
        }
      ],
      "name": "balanceOf",
      "outputs": [
        {
          "name": "balance",
          "type": "uint256"
        }
      ],
      "payable": false,
      "stateMutability": "view",
      "type": "function"
    },
    {
      "constant": true,
      "inputs": [],
      "name": "symbol",
      "outputs": [
        {
          "name": "",
          "type": "bytes32"
        }
      ],
      "payable": false,
      "stateMutability": "view",
      "type": "function"
    },
    {
      "constant": false,
      "inputs": [
        {
          "name": "_to",
          "type": "address"
        },
        {
          "name": "_value",
          "type": "uint256"
        }
      ],
      "name": "transfer",
      "outputs": [
        {
          "name": "",
          "type": "bool"
        }
      ],
      "payable": false,
      "stateMutability": "nonpayable",
      "type": "function"
    },
    {
      "constant": false,
      "inputs": [
        {
          "name": "_publicKey",
          "type": "bytes32"
        },
        {
          "name": "_cur",
          "type": "bytes32"
        },
        {
          "name": "_keyName",
          "type": "bytes32"
        },
        {
          "name": "_isDefault",
          "type": "bool"
        }
      ],
      "name": "addPublicKeyToUser",
      "outputs": [],
      "payable": false,
      "stateMutability": "nonpayable",
      "type": "function"
    },
    {
      "constant": false,
      "inputs": [
        {
          "name": "_titanName",
          "type": "bytes32"
        },
        {
          "name": "_timestamp",
          "type": "uint256"
        }
      ],
      "name": "insertNewName",
      "outputs": [],
      "payable": false,
      "stateMutability": "nonpayable",
      "type": "function"
    },
    {
      "constant": false,
      "inputs": [
        {
          "name": "_spender",
          "type": "address"
        },
        {
          "name": "_addedValue",
          "type": "uint256"
        }
      ],
      "name": "increaseApproval",
      "outputs": [
        {
          "name": "",
          "type": "bool"
        }
      ],
      "payable": false,
      "stateMutability": "nonpayable",
      "type": "function"
    },
    {
      "constant": true,
      "inputs": [
        {
          "name": "_owner",
          "type": "address"
        },
        {
          "name": "_spender",
          "type": "address"
        }
      ],
      "name": "allowance",
      "outputs": [
        {
          "name": "",
          "type": "uint256"
        }
      ],
      "payable": false,
      "stateMutability": "view",
      "type": "function"
    },
    {
      "constant": true,
      "inputs": [],
      "name": "getNamesOfUser",
      "outputs": [
        {
          "name": "_names",
          "type": "bytes32[]"
        }
      ],
      "payable": false,
      "stateMutability": "view",
      "type": "function"
    },
    {
      "anonymous": false,
      "inputs": [
        {
          "indexed": true,
          "name": "_userAddress",
          "type": "address"
        },
        {
          "indexed": false,
          "name": "_firstName",
          "type": "bytes32"
        },
        {
          "indexed": false,
          "name": "_lastName",
          "type": "bytes32"
        },
        {
          "indexed": true,
          "name": "_email",
          "type": "bytes32"
        }
      ],
      "name": "UserSignedUp",
      "type": "event"
    },
    {
      "anonymous": false,
      "inputs": [
        {
          "indexed": true,
          "name": "_userAddress",
          "type": "address"
        },
        {
          "indexed": false,
          "name": "_firstName",
          "type": "bytes32"
        },
        {
          "indexed": false,
          "name": "_lastName",
          "type": "bytes32"
        },
        {
          "indexed": true,
          "name": "_email",
          "type": "bytes32"
        }
      ],
      "name": "UserUpdatedProfile",
      "type": "event"
    },
    {
      "anonymous": false,
      "inputs": [
        {
          "indexed": true,
          "name": "owner",
          "type": "address"
        },
        {
          "indexed": true,
          "name": "spender",
          "type": "address"
        },
        {
          "indexed": false,
          "name": "value",
          "type": "uint256"
        }
      ],
      "name": "Approval",
      "type": "event"
    },
    {
      "anonymous": false,
      "inputs": [
        {
          "indexed": true,
          "name": "from",
          "type": "address"
        },
        {
          "indexed": true,
          "name": "to",
          "type": "address"
        },
        {
          "indexed": false,
          "name": "value",
          "type": "uint256"
        }
      ],
      "name": "Transfer",
      "type": "event"
    }
  ],
  "bytecode": "0x60606040527f546974616e4b65790000000000000000000000000000000000000000000000006003906000191690557f544954414e000000000000000000000000000000000000000000000000000000600490600019169055600a6005556305f5e100600655341561007057600080fd5b612d838061007f6000396000f300606060405260043610610133576000357c0100000000000000000000000000000000000000000000000000000000900463ffffffff16806306fdde0314610138578063095ea7b3146101695780630f3ff8bb146101c357806315285fed1461021357806318160ddd1461039d57806323b872dd146103c65780632ff2e9dc1461043f578063313ce5671461046857806338ffeb0b1461049157806341f5947b146104fb5780634790a62d1461053a5780634cc4e39614610589578063563560f4146105de578063661884631461061f5780636c2f4cb11461067957806370a08231146106b857806395d89b4114610705578063a9059cbb14610736578063cc8c9f3d14610790578063d07b9505146107dc578063d73dd6231461080c578063dd62ed3e14610866578063f2d6ae54146108d2575b600080fd5b341561014357600080fd5b61014b61093c565b60405180826000191660001916815260200191505060405180910390f35b341561017457600080fd5b6101a9600480803573ffffffffffffffffffffffffffffffffffffffff16906020019091908035906020019091905050610942565b604051808215151515815260200191505060405180910390f35b34156101ce57600080fd5b6101f560048080356000191690602001909190803560001916906020019091905050610a34565b60405180826000191660001916815260200191505060405180910390f35b341561021e57600080fd5b610226610c6f565b60405180806020018060200180602001806020018060200186810386528b818151815260200191508051906020019060200280838360005b8381101561027957808201518184015260208101905061025e565b5050505090500186810385528a818151815260200191508051906020019060200280838360005b838110156102bb5780820151818401526020810190506102a0565b50505050905001868103845289818151815260200191508051906020019060200280838360005b838110156102fd5780820151818401526020810190506102e2565b50505050905001868103835288818151815260200191508051906020019060200280838360005b8381101561033f578082015181840152602081019050610324565b50505050905001868103825287818151815260200191508051906020019060200280838360005b83811015610381578082015181840152602081019050610366565b505050509050019a505050505050505050505060405180910390f35b34156103a857600080fd5b6103b0611295565b6040518082815260200191505060405180910390f35b34156103d157600080fd5b610425600480803573ffffffffffffffffffffffffffffffffffffffff1690602001909190803573ffffffffffffffffffffffffffffffffffffffff1690602001909190803590602001909190505061129b565b604051808215151515815260200191505060405180910390f35b341561044a57600080fd5b61045261165a565b6040518082815260200191505060405180910390f35b341561047357600080fd5b61047b611660565b6040518082815260200191505060405180910390f35b341561049c57600080fd5b6104a4611666565b6040518080602001828103825283818151815260200191508051906020019060200280838360005b838110156104e75780820151818401526020810190506104cc565b505050509050019250505060405180910390f35b341561050657600080fd5b610520600480803560001916906020019091905050611708565b604051808215151515815260200191505060405180910390f35b341561054557600080fd5b61054d61173d565b60405180846000191660001916815260200183600019166000191681526020018260001916600019168152602001935050505060405180910390f35b341561059457600080fd5b6105dc6004808035600019169060200190919080356000191690602001909190803560001916906020019091908035151590602001909190803590602001909190505061191a565b005b34156105e957600080fd5b61061d6004808035600019169060200190919080356000191690602001909190803560001916906020019091905050611b0c565b005b341561062a57600080fd5b61065f600480803573ffffffffffffffffffffffffffffffffffffffff16906020019091908035906020019091905050611cf7565b604051808215151515815260200191505060405180910390f35b341561068457600080fd5b61069a6004808035906020019091905050611f88565b60405180826000191660001916815260200191505060405180910390f35b34156106c357600080fd5b6106ef600480803573ffffffffffffffffffffffffffffffffffffffff16906020019091905050611fac565b6040518082815260200191505060405180910390f35b341561071057600080fd5b610718611ff5565b60405180826000191660001916815260200191505060405180910390f35b341561074157600080fd5b610776600480803573ffffffffffffffffffffffffffffffffffffffff16906020019091908035906020019091905050611ffb565b604051808215151515815260200191505060405180910390f35b341561079b57600080fd5b6107da6004808035600019169060200190919080356000191690602001909190803560001916906020019091908035151590602001909190505061221f565b005b34156107e757600080fd5b61080a6004808035600019169060200190919080359060200190919050506125c0565b005b341561081757600080fd5b61084c600480803573ffffffffffffffffffffffffffffffffffffffff16906020019091908035906020019091905050612880565b604051808215151515815260200191505060405180910390f35b341561087157600080fd5b6108bc600480803573ffffffffffffffffffffffffffffffffffffffff1690602001909190803573ffffffffffffffffffffffffffffffffffffffff16906020019091905050612a7c565b6040518082815260200191505060405180910390f35b34156108dd57600080fd5b6108e5612b03565b6040518080602001828103825283818151815260200191508051906020019060200280838360005b8381101561092857808201518184015260208101905061090d565b505050509050019250505060405180910390f35b60035481565b600081600260003373ffffffffffffffffffffffffffffffffffffffff1673ffffffffffffffffffffffffffffffffffffffff16815260200190815260200160002060008573ffffffffffffffffffffffffffffffffffffffff1673ffffffffffffffffffffffffffffffffffffffff168152602001908152602001600020819055508273ffffffffffffffffffffffffffffffffffffffff163373ffffffffffffffffffffffffffffffffffffffff167f8c5be1e5ebec7d5bd14f71427d1e84f3dd0314c0f7b2291e5b200ac8c7c3b925846040518082815260200191505060405180910390a36001905092915050565b600080600080600060096000886000191660001916815260200190815260200160002060000160009054906101000a900473ffffffffffffffffffffffffffffffffffffffff169350600860008573ffffffffffffffffffffffffffffffffffffffff1673ffffffffffffffffffffffffffffffffffffffff16815260200190815260200160002060080160008760001916600019168152602001908152602001600020600001805490509250600090505b82811015610c3e57600860008573ffffffffffffffffffffffffffffffffffffffff1673ffffffffffffffffffffffffffffffffffffffff1681526020019081526020016000206008016000876000191660001916815260200190815260200160002060000181815481101515610b5957fe5b9060005260206000209001549150600860008573ffffffffffffffffffffffffffffffffffffffff1673ffffffffffffffffffffffffffffffffffffffff168152602001908152602001600020600901600083815260200190815260200160002060000160019054906101000a900460ff1615610c3157600860008573ffffffffffffffffffffffffffffffffffffffff1673ffffffffffffffffffffffffffffffffffffffff1681526020019081526020016000206009016000838152602001908152602001600020600301549450849450610c65565b8080600101915050610ae6565b7f4b65696e205374616e64617264204b65792068696e7465726c6567740000000094508494505b5050505092915050565b610c77612c79565b610c7f612c79565b610c87612c79565b610c8f612c8d565b610c97612ca1565b610c9f612c79565b6000806000610cac612ca1565b600080600860003373ffffffffffffffffffffffffffffffffffffffff1673ffffffffffffffffffffffffffffffffffffffff168152602001908152602001600020600601805490501415610d0057600080fd5b600860003373ffffffffffffffffffffffffffffffffffffffff1673ffffffffffffffffffffffffffffffffffffffff168152602001908152602001600020600601805480602002602001604051908101604052809291908181526020018280548015610d9057602002820191906000526020600020905b81546000191681526020019060010190808311610d78575b5050505050955060009450600093505b8551841015610e3357600860003373ffffffffffffffffffffffffffffffffffffffff1673ffffffffffffffffffffffffffffffffffffffff16815260200190815260200160002060080160008786815181101515610dfb57fe5b906020019060200201516000191660001916815260200190815260200160002060000180549050850194508380600101945050610da0565b84604051805910610e415750595b90808252806020026020018201604052509a5084604051805910610e625750595b9080825280602002602001820160405250995084604051805910610e835750595b9080825280602002602001820160405250985084604051805910610ea45750595b9080825280602002602001820160405250975084604051805910610ec55750595b90808252806020026020018201604052509650600092505b855183101561127957600860003373ffffffffffffffffffffffffffffffffffffffff1673ffffffffffffffffffffffffffffffffffffffff16815260200190815260200160002060080160008785815181101515610f3857fe5b9060200190602002015160001916600019168152602001908152602001600020600001805480602002602001604051908101604052809291908181526020018280548015610fa557602002820191906000526020600020905b815481526020019060010190808311610f91575b50505050509150600090505b815181101561126c57600860003373ffffffffffffffffffffffffffffffffffffffff1673ffffffffffffffffffffffffffffffffffffffff1681526020019081526020016000206009016000838381518110151561100c57fe5b906020019060200201518152602001908152602001600020600301548b6001870381518110151561103957fe5b906020019060200201906000191690816000191681525050600860003373ffffffffffffffffffffffffffffffffffffffff1673ffffffffffffffffffffffffffffffffffffffff168152602001908152602001600020600901600083838151811015156110a357fe5b906020019060200201518152602001908152602001600020600101548a600187038151811015156110d057fe5b90602001906020020190600019169081600019168152505085838151811015156110f657fe5b90602001906020020151896001870381518110151561111157fe5b906020019060200201906000191690816000191681525050600860003373ffffffffffffffffffffffffffffffffffffffff1673ffffffffffffffffffffffffffffffffffffffff1681526020019081526020016000206009016000838381518110151561117b57fe5b90602001906020020151815260200190815260200160002060000160009054906101000a900460ff1688600187038151811015156111b557fe5b9060200190602002019015159081151581525050600860003373ffffffffffffffffffffffffffffffffffffffff1673ffffffffffffffffffffffffffffffffffffffff1681526020019081526020016000206009016000838381518110151561121b57fe5b90602001906020020151815260200190815260200160002060020154876001870381518110151561124857fe5b90602001906020020181815250508480600190039550508080600101915050610fb1565b8280600101935050610edd565b8a8a8a8a8a9a509a509a509a509a505050505050509091929394565b60005481565b60008073ffffffffffffffffffffffffffffffffffffffff168373ffffffffffffffffffffffffffffffffffffffff16141515156112d857600080fd5b600160008573ffffffffffffffffffffffffffffffffffffffff1673ffffffffffffffffffffffffffffffffffffffff16815260200190815260200160002054821115151561132657600080fd5b600260008573ffffffffffffffffffffffffffffffffffffffff1673ffffffffffffffffffffffffffffffffffffffff16815260200190815260200160002060003373ffffffffffffffffffffffffffffffffffffffff1673ffffffffffffffffffffffffffffffffffffffff1681526020019081526020016000205482111515156113b157600080fd5b61140382600160008773ffffffffffffffffffffffffffffffffffffffff1673ffffffffffffffffffffffffffffffffffffffff16815260200190815260200160002054612c4290919063ffffffff16565b600160008673ffffffffffffffffffffffffffffffffffffffff1673ffffffffffffffffffffffffffffffffffffffff1681526020019081526020016000208190555061149882600160008673ffffffffffffffffffffffffffffffffffffffff1673ffffffffffffffffffffffffffffffffffffffff16815260200190815260200160002054612c5b90919063ffffffff16565b600160008573ffffffffffffffffffffffffffffffffffffffff1673ffffffffffffffffffffffffffffffffffffffff1681526020019081526020016000208190555061156a82600260008773ffffffffffffffffffffffffffffffffffffffff1673ffffffffffffffffffffffffffffffffffffffff16815260200190815260200160002060003373ffffffffffffffffffffffffffffffffffffffff1673ffffffffffffffffffffffffffffffffffffffff16815260200190815260200160002054612c4290919063ffffffff16565b600260008673ffffffffffffffffffffffffffffffffffffffff1673ffffffffffffffffffffffffffffffffffffffff16815260200190815260200160002060003373ffffffffffffffffffffffffffffffffffffffff1673ffffffffffffffffffffffffffffffffffffffff168152602001908152602001600020819055508273ffffffffffffffffffffffffffffffffffffffff168473ffffffffffffffffffffffffffffffffffffffff167fddf252ad1be2c89b69c2b068fc378daa952ba7f163c4a11628f55a4df523b3ef846040518082815260200191505060405180910390a3600190509392505050565b60065481565b60055481565b61166e612c79565b600860003373ffffffffffffffffffffffffffffffffffffffff1673ffffffffffffffffffffffffffffffffffffffff1681526020019081526020016000206006018054806020026020016040519081016040528092919081815260200182805480156116fe57602002820191906000526020600020905b815460001916815260200190600101908083116116e6575b5050505050905090565b600060096000836000191660001916815260200190815260200160002060000160149054906101000a900460ff169050919050565b600080600080600102600860003373ffffffffffffffffffffffffffffffffffffffff1673ffffffffffffffffffffffffffffffffffffffff1681526020019081526020016000206000015460001916141580156117e557506000600102600860003373ffffffffffffffffffffffffffffffffffffffff1673ffffffffffffffffffffffffffffffffffffffff168152602001908152602001600020600301546000191614155b801561183b57506000600102600860003373ffffffffffffffffffffffffffffffffffffffff1673ffffffffffffffffffffffffffffffffffffffff168152602001908152602001600020600401546000191614155b151561184657600080fd5b600860003373ffffffffffffffffffffffffffffffffffffffff1673ffffffffffffffffffffffffffffffffffffffff16815260200190815260200160002060000154600860003373ffffffffffffffffffffffffffffffffffffffff1673ffffffffffffffffffffffffffffffffffffffff16815260200190815260200160002060030154600860003373ffffffffffffffffffffffffffffffffffffffff1673ffffffffffffffffffffffffffffffffffffffff16815260200190815260200160002060040154925092509250909192565b6000600102600860003373ffffffffffffffffffffffffffffffffffffffff1673ffffffffffffffffffffffffffffffffffffffff168152602001908152602001600020600001546000191614156119b85784600860003373ffffffffffffffffffffffffffffffffffffffff1673ffffffffffffffffffffffffffffffffffffffff16815260200190815260200160002060000181600019169055505b6000600102600860003373ffffffffffffffffffffffffffffffffffffffff1673ffffffffffffffffffffffffffffffffffffffff16815260200190815260200160002060030154600019161415611a565783600860003373ffffffffffffffffffffffffffffffffffffffff1673ffffffffffffffffffffffffffffffffffffffff16815260200190815260200160002060030181600019169055505b6000600102600860003373ffffffffffffffffffffffffffffffffffffffff1673ffffffffffffffffffffffffffffffffffffffff16815260200190815260200160002060040154600019161415611af45782600860003373ffffffffffffffffffffffffffffffffffffffff1673ffffffffffffffffffffffffffffffffffffffff16815260200190815260200160002060040181600019169055505b8115611b0557611b0483826125c0565b5b5050505050565b6000600102600860003373ffffffffffffffffffffffffffffffffffffffff1673ffffffffffffffffffffffffffffffffffffffff168152602001908152602001600020600001546000191614158015611bb057506000600102600860003373ffffffffffffffffffffffffffffffffffffffff1673ffffffffffffffffffffffffffffffffffffffff168152602001908152602001600020600301546000191614155b8015611c0657506000600102600860003373ffffffffffffffffffffffffffffffffffffffff1673ffffffffffffffffffffffffffffffffffffffff168152602001908152602001600020600401546000191614155b1515611c1157600080fd5b82600860003373ffffffffffffffffffffffffffffffffffffffff1673ffffffffffffffffffffffffffffffffffffffff168152602001908152602001600020600001816000191690555081600860003373ffffffffffffffffffffffffffffffffffffffff1673ffffffffffffffffffffffffffffffffffffffff168152602001908152602001600020600301816000191690555080600860003373ffffffffffffffffffffffffffffffffffffffff1673ffffffffffffffffffffffffffffffffffffffff1681526020019081526020016000206004018160001916905550505050565b600080600260003373ffffffffffffffffffffffffffffffffffffffff1673ffffffffffffffffffffffffffffffffffffffff16815260200190815260200160002060008573ffffffffffffffffffffffffffffffffffffffff1673ffffffffffffffffffffffffffffffffffffffff16815260200190815260200160002054905080831115611e08576000600260003373ffffffffffffffffffffffffffffffffffffffff1673ffffffffffffffffffffffffffffffffffffffff16815260200190815260200160002060008673ffffffffffffffffffffffffffffffffffffffff1673ffffffffffffffffffffffffffffffffffffffff16815260200190815260200160002081905550611e9c565b611e1b8382612c4290919063ffffffff16565b600260003373ffffffffffffffffffffffffffffffffffffffff1673ffffffffffffffffffffffffffffffffffffffff16815260200190815260200160002060008673ffffffffffffffffffffffffffffffffffffffff1673ffffffffffffffffffffffffffffffffffffffff168152602001908152602001600020819055505b8373ffffffffffffffffffffffffffffffffffffffff163373ffffffffffffffffffffffffffffffffffffffff167f8c5be1e5ebec7d5bd14f71427d1e84f3dd0314c0f7b2291e5b200ac8c7c3b925600260003373ffffffffffffffffffffffffffffffffffffffff1673ffffffffffffffffffffffffffffffffffffffff16815260200190815260200160002060008873ffffffffffffffffffffffffffffffffffffffff1673ffffffffffffffffffffffffffffffffffffffff168152602001908152602001600020546040518082815260200191505060405180910390a3600191505092915050565b600781815481101515611f9757fe5b90600052602060002090016000915090505481565b6000600160008373ffffffffffffffffffffffffffffffffffffffff1673ffffffffffffffffffffffffffffffffffffffff168152602001908152602001600020549050919050565b60045481565b60008073ffffffffffffffffffffffffffffffffffffffff168373ffffffffffffffffffffffffffffffffffffffff161415151561203857600080fd5b600160003373ffffffffffffffffffffffffffffffffffffffff1673ffffffffffffffffffffffffffffffffffffffff16815260200190815260200160002054821115151561208657600080fd5b6120d882600160003373ffffffffffffffffffffffffffffffffffffffff1673ffffffffffffffffffffffffffffffffffffffff16815260200190815260200160002054612c4290919063ffffffff16565b600160003373ffffffffffffffffffffffffffffffffffffffff1673ffffffffffffffffffffffffffffffffffffffff1681526020019081526020016000208190555061216d82600160008673ffffffffffffffffffffffffffffffffffffffff1673ffffffffffffffffffffffffffffffffffffffff16815260200190815260200160002054612c5b90919063ffffffff16565b600160008573ffffffffffffffffffffffffffffffffffffffff1673ffffffffffffffffffffffffffffffffffffffff168152602001908152602001600020819055508273ffffffffffffffffffffffffffffffffffffffff163373ffffffffffffffffffffffffffffffffffffffff167fddf252ad1be2c89b69c2b068fc378daa952ba7f163c4a11628f55a4df523b3ef846040518082815260200191505060405180910390a36001905092915050565b6000600860003373ffffffffffffffffffffffffffffffffffffffff1673ffffffffffffffffffffffffffffffffffffffff1681526020019081526020016000206008016000856000191660001916815260200190815260200160002060010160009054906101000a900460ff16151561237a57600860003373ffffffffffffffffffffffffffffffffffffffff1673ffffffffffffffffffffffffffffffffffffffff16815260200190815260200160002060060180548060010182816122e79190612cb5565b9160005260206000209001600086909190915090600019169055506001600860003373ffffffffffffffffffffffffffffffffffffffff1673ffffffffffffffffffffffffffffffffffffffff1681526020019081526020016000206008016000866000191660001916815260200190815260200160002060010160006101000a81548160ff0219169083151502179055505b6001600a80548060010182816123909190612cb5565b9160005260206000209001600088909190915090600019169055039050600860003373ffffffffffffffffffffffffffffffffffffffff1673ffffffffffffffffffffffffffffffffffffffff16815260200190815260200160002060080160008560001916600019168152602001908152602001600020600001805480600101828161241d9190612ce1565b91600052602060002090016000839091909150555084600860003373ffffffffffffffffffffffffffffffffffffffff1673ffffffffffffffffffffffffffffffffffffffff1681526020019081526020016000206009016000838152602001908152602001600020600301816000191690555082600860003373ffffffffffffffffffffffffffffffffffffffff1673ffffffffffffffffffffffffffffffffffffffff1681526020019081526020016000206009016000838152602001908152602001600020600101816000191690555081600860003373ffffffffffffffffffffffffffffffffffffffff1673ffffffffffffffffffffffffffffffffffffffff168152602001908152602001600020600901600083815260200190815260200160002060000160016101000a81548160ff02191690831515021790555042600860003373ffffffffffffffffffffffffffffffffffffffff1673ffffffffffffffffffffffffffffffffffffffff1681526020019081526020016000206009016000838152602001908152602001600020600201819055505050505050565b6000600102600860003373ffffffffffffffffffffffffffffffffffffffff1673ffffffffffffffffffffffffffffffffffffffff16815260200190815260200160002060000154600019161415801561266457506000600102600860003373ffffffffffffffffffffffffffffffffffffffff1673ffffffffffffffffffffffffffffffffffffffff168152602001908152602001600020600301546000191614155b80156126ba57506000600102600860003373ffffffffffffffffffffffffffffffffffffffff1673ffffffffffffffffffffffffffffffffffffffff168152602001908152602001600020600401546000191614155b15156126c557600080fd5b6001151560096000846000191660001916815260200190815260200160002060000160149054906101000a900460ff161515141561270257600080fd5b3360096000846000191660001916815260200190815260200160002060000160006101000a81548173ffffffffffffffffffffffffffffffffffffffff021916908373ffffffffffffffffffffffffffffffffffffffff160217905550600160096000846000191660001916815260200190815260200160002060000160146101000a81548160ff02191690831515021790555042600960008460001916600019168152602001908152602001600020600101819055508060096000846000191660001916815260200190815260200160002060020181905550600b80548060010182816127f09190612cb5565b916000526020600020900160008490919091509060001916905550600860003373ffffffffffffffffffffffffffffffffffffffff1673ffffffffffffffffffffffffffffffffffffffff168152602001908152602001600020600701805480600101828161285f9190612ce1565b916000526020600020900160006001600b8054905003909190915055505050565b600061291182600260003373ffffffffffffffffffffffffffffffffffffffff1673ffffffffffffffffffffffffffffffffffffffff16815260200190815260200160002060008673ffffffffffffffffffffffffffffffffffffffff1673ffffffffffffffffffffffffffffffffffffffff16815260200190815260200160002054612c5b90919063ffffffff16565b600260003373ffffffffffffffffffffffffffffffffffffffff1673ffffffffffffffffffffffffffffffffffffffff16815260200190815260200160002060008573ffffffffffffffffffffffffffffffffffffffff1673ffffffffffffffffffffffffffffffffffffffff168152602001908152602001600020819055508273ffffffffffffffffffffffffffffffffffffffff163373ffffffffffffffffffffffffffffffffffffffff167f8c5be1e5ebec7d5bd14f71427d1e84f3dd0314c0f7b2291e5b200ac8c7c3b925600260003373ffffffffffffffffffffffffffffffffffffffff1673ffffffffffffffffffffffffffffffffffffffff16815260200190815260200160002060008773ffffffffffffffffffffffffffffffffffffffff1673ffffffffffffffffffffffffffffffffffffffff168152602001908152602001600020546040518082815260200191505060405180910390a36001905092915050565b6000600260008473ffffffffffffffffffffffffffffffffffffffff1673ffffffffffffffffffffffffffffffffffffffff16815260200190815260200160002060008373ffffffffffffffffffffffffffffffffffffffff1673ffffffffffffffffffffffffffffffffffffffff16815260200190815260200160002054905092915050565b612b0b612c79565b600080600860003373ffffffffffffffffffffffffffffffffffffffff1673ffffffffffffffffffffffffffffffffffffffff1681526020019081526020016000206007018054905091506000821415612b6457600080fd5b81604051805910612b725750595b90808252806020026020018201604052509250600090505b81811015612c3a57600b600860003373ffffffffffffffffffffffffffffffffffffffff1673ffffffffffffffffffffffffffffffffffffffff16815260200190815260200160002060070182815481101515612be357fe5b906000526020600020900154815481101515612bfb57fe5b9060005260206000209001548382815181101515612c1557fe5b9060200190602002019060001916908160001916815250508080600101915050612b8a565b829250505090565b6000828211151515612c5057fe5b818303905092915050565b6000808284019050838110151515612c6f57fe5b8091505092915050565b602060405190810160405280600081525090565b602060405190810160405280600081525090565b602060405190810160405280600081525090565b815481835581811511612cdc57818360005260206000209182019101612cdb9190612d0d565b5b505050565b815481835581811511612d0857818360005260206000209182019101612d079190612d32565b5b505050565b612d2f91905b80821115612d2b576000816000905550600101612d13565b5090565b90565b612d5491905b80821115612d50576000816000905550600101612d38565b5090565b905600a165627a7a723058205e8dab3f14ea1ecb47c1eb4b6d2630c6f9edaea7d8a01561097cd4a07ecbdf820029",
  "source": "pragma solidity ^0.4.18;\nimport 'zeppelin-solidity/contracts/token/StandardToken.sol';\n\ncontract TitanKey is StandardToken {\n  event UserSignedUp(address indexed _userAddress, bytes32 _firstName, bytes32 _lastName, bytes32 indexed _email);\n  event UserUpdatedProfile(address indexed _userAddress, bytes32 _firstName, bytes32 _lastName, bytes32 indexed _email);\n\n  bytes32 public name = 'TitanKey';\n  bytes32 public symbol = 'TITAN';\n  uint public decimals = 10;\n  uint public INITIAL_SUPPLY = 100000000;\n  bytes32[] public validCurrencies;\n\n// DATA MODEL\n\nstruct TitanUser {\n  bytes32 firstName;\n  uint256 registeredAtBlocktime;\n  uint256 registeredAtTimestamp;\n  bytes32 lastName;\n  bytes32 email;\n  bool userActive;\n  bytes32[] curList;\n  uint256[] nameList;  //IDs der globalen NameList, die dem Nutzer gehren.\n  mapping (bytes32 => Currency) currencies; //Jede Curreny bekommt eine eigene PublicKey Ledger; Bytes32 = curreny\n  mapping (uint256 => PublicKey) userPublicKeys; //int32= ID des Keys; PublicKey hat weitere Infos;\n}\nmapping (address => TitanUser) titanUsers; //Alle Nutzer\n\nstruct Currency {\n  uint256[] keyIdGlobal;//IDs der globalen KeyList, die dem Nutzer gehren.\n  bool isActive;\n}\n\nstruct PublicKey {\n  bool isDefault;\n  bool keyStatus; // 1 = Existiert; 2 = Standard\n  bytes32 keyName;\n  uint256 lastChange;\n  bytes32 key;\n}\n\nstruct TitanName {\n  //bytes32 titanName; wird nicht gebraucht, da in Mapping vorhanden\n  address owner;\n  bool nameActive;\n  uint256 registeredAtBlocktime;\n  uint256 registeredAtTimestamp;\n}\nmapping (bytes32 => TitanName) titanNames; //Namesverzeichnis: Jeder Name hat ein TitanName Object\n\n/*\nGLOBAL LEDGERs\nEvery KeyHash, Name gets an Id (index of Array).\nUse Case: This Id is also saved in the TitanUser-Object so that one user could\n          have more then one Name;\n*/\nbytes32[] allKeyHashs;\nbytes32[] allNames;\n\n\n// MODIFIER\n/* Check if user exists or terminate */\nmodifier onlyExistingUser {\n  require(!(titanUsers[msg.sender].firstName == 0x0) && !(titanUsers[msg.sender].lastName == 0x0) && !(titanUsers[msg.sender].email == 0x0));\n  _;\n}\n\n// FUNCTIONS\n\n/*\n\n@params _titanName: TitanName\n@return false, if Name is active; true, if Name is not active\n*/\n  function insertNewName(bytes32 _titanName, uint256 _timestamp) onlyExistingUser public {\n    //wenn der Name aktiv ist, dann darf die funktion nicht funktionieren\n    if (titanNames[_titanName].nameActive == true) revert();\n\n    titanNames[_titanName].owner = msg.sender;\n    titanNames[_titanName].nameActive = true;\n    titanNames[_titanName].registeredAtBlocktime = now;\n    titanNames[_titanName].registeredAtTimestamp = _timestamp;\n    //Ich muss den TitanName in die NamesList; Dann bekomme ich einen Index zurck. Diesen Index speicher ich bei einem Nutzer ab\n    allNames.push(_titanName); //erster Name = stelle 0; lnge 1\n    titanUsers[msg.sender].nameList.push(allNames.length-1);\n\n  }\n  /*\n\n  @params\n  @return\n  */\n  function isNameAvailable(bytes32 _titanName) public constant returns (bool) {\n    return titanNames[_titanName].nameActive;\n  }\n  /*\n\n  @params\n  @return\n  */\n  function getNamesOfUser() public constant returns (bytes32[] memory _names) {\n    uint256 _len = titanUsers[msg.sender].nameList.length;\n    if (_len == 0) revert();\n\n    _names = new bytes32[](_len);\n    for(uint i = 0; i < _len; i++){\n\n      _names[i] = allNames[titanUsers[msg.sender].nameList[i]];\n    }\n\n    return _names;\n  }\n  /*\n  Gets all keys from msg.sender and his keys per currencies\n  @params\n  @return\n  */\n  function getPublicKeys() public constant returns (bytes32[] memory _publicKeys ,bytes32[] memory _keyNames,bytes32[] memory _currency ,bool[] memory _isDefault, uint[] _lastChange) {\n    if (titanUsers[msg.sender].curList.length == 0) revert();\n\n    bytes32[] memory _userCurrencies = titanUsers[msg.sender].curList;\n\n    // get count of all keys of all user currencies for fixed length memory arrays\n    uint256 _countofKeys = 0;\n    for (uint k = 0; k < _userCurrencies.length; k++) {\n      _countofKeys += titanUsers[msg.sender].currencies[_userCurrencies[k]].keyIdGlobal.length;\n    }\n\n    _publicKeys = new bytes32[](_countofKeys);\n    _keyNames = new bytes32[](_countofKeys);\n    _currency = new bytes32[](_countofKeys);\n    _isDefault = new bool[](_countofKeys);\n    _lastChange = new uint256[](_countofKeys);\n\n    for (uint i = 0; i < _userCurrencies.length; i++) {\n      uint256[] memory _currencyGlobalKeys = titanUsers[msg.sender].currencies[_userCurrencies[i]].keyIdGlobal;\n\n      for(uint j = 0; j < _currencyGlobalKeys.length; j++){\n\n        _publicKeys[_countofKeys-1] = titanUsers[msg.sender].userPublicKeys[_currencyGlobalKeys[j]].key;\n        _keyNames[_countofKeys-1] = titanUsers[msg.sender].userPublicKeys[_currencyGlobalKeys[j]].keyName;\n        _currency[_countofKeys-1] = _userCurrencies[i];\n        _isDefault[_countofKeys-1] = titanUsers[msg.sender].userPublicKeys[_currencyGlobalKeys[j]].isDefault;\n        _lastChange[_countofKeys-1] = titanUsers[msg.sender].userPublicKeys[_currencyGlobalKeys[j]].lastChange;\n        _countofKeys--;\n      }\n\n    }\n    return (_publicKeys,_keyNames,_currency,_isDefault,_lastChange);\n  }\n\n  function addPublicKeyToUser(bytes32 _publicKey, bytes32 _cur, bytes32 _keyName, bool _isDefault) public {\n    // Activate Currency for User and push it to the currency arrray\n    if (!titanUsers[msg.sender].currencies[_cur].isActive) {\n      titanUsers[msg.sender].curList.push(_cur);\n      titanUsers[msg.sender].currencies[_cur].isActive = true;\n    }\n      //Ich muss den TitanName in die NamesList; Dann bekomme ich einen Index zurck. Diesen Index speicher ich bei einem Nutzer ab\n      //Hinzufgen des Keys in globale Ledger\n    uint256 _keyGlobalIndex = allKeyHashs.push(_publicKey)-1;\n\n    titanUsers[msg.sender].currencies[_cur].keyIdGlobal.push(_keyGlobalIndex); //erster Key = _keyIndex 0\n\n    titanUsers[msg.sender].userPublicKeys[_keyGlobalIndex].key =_publicKey;\n    titanUsers[msg.sender].userPublicKeys[_keyGlobalIndex].keyName =_keyName;\n    titanUsers[msg.sender].userPublicKeys[_keyGlobalIndex].keyStatus =_isDefault;\n    titanUsers[msg.sender].userPublicKeys[_keyGlobalIndex].lastChange = now;\n\n  }\n\n  function getPublicKeyByName (bytes32 _titanName, bytes32 _cur) public constant returns (bytes32 _publicKey ) {\n    address _owner = titanNames[_titanName].owner;\n    uint256 _len = titanUsers[_owner].currencies[_cur].keyIdGlobal.length; //Beispiel: 1 Key, lenght = 1; index 0\n\n    uint256 j;\n    for(uint i = 0; i < _len; i++){\n\n      j = titanUsers[_owner].currencies[_cur].keyIdGlobal[i]; //1. durchlauf i = 0; j = 1 //_keyIndex; Need = 0;\n\n      if(titanUsers[_owner].userPublicKeys[j].keyStatus) {\n        // j = Die Id des zu untersuchenden Keys im Globalen Verzeichnis\n        return _publicKey = titanUsers[_owner].userPublicKeys[j].key;\n      }\n    }\n    return _publicKey = \"Kein Standard Key hinterlegt\";\n      /*Nutzer hat genau einen Key. Es wird in der Tabelle des Nutzers nach der ID seines Keys in der globalen\n      Keyliste gesucht und dieser wird zurckgegeben*/\n  }\n\n  // USER - Functions\n\n    function userSignUp(bytes32 _firstName, bytes32 _lastName, bytes32 _email, bool emailIsName, uint256 _timestamp) public {\n      if (titanUsers[msg.sender].firstName == 0x0) titanUsers[msg.sender].firstName = _firstName;\n      if (titanUsers[msg.sender].lastName == 0x0) titanUsers[msg.sender].lastName = _lastName;\n      if (titanUsers[msg.sender].email == 0x0) titanUsers[msg.sender].email = _email;\n\n      if (emailIsName) {\n        insertNewName(_email, _timestamp);\n      }\n    }\n\n    function userUpdate(bytes32 _firstName, bytes32 _lastName, bytes32 _email) onlyExistingUser public {\n      titanUsers[msg.sender].firstName = _firstName;\n      titanUsers[msg.sender].lastName = _lastName;\n      titanUsers[msg.sender].email = _email;\n    }\n\n    function userLogin() external view onlyExistingUser returns (bytes32, bytes32, bytes32)\n    {\n      return (titanUsers[msg.sender].firstName, titanUsers[msg.sender].lastName, titanUsers[msg.sender].email);\n    }\n  // UTITLITY\n\n  function getCurFromUser() public constant returns(bytes32[]) {\n    return titanUsers[msg.sender].curList;\n  }\n}\n",
  "sourcePath": "/Users/Chris/Documents/GitHub/titankey/contracts/TitanKey.sol",
  "compiler": {
    "name": "solc",
    "version": "0.4.18+commit.9cf6e910.Emscripten.clang"
  },
  "schemaVersion": "1.0.1",
  "updatedAt": "2018-01-20T11:49:41.489Z"
}