{
  "contractName": "TitanKey",
  "abi": [
    {
      "constant": true,
      "inputs": [],
      "name": "name",
      "outputs": [
        {
          "name": "",
          "type": "bytes32"
        }
      ],
      "payable": false,
      "stateMutability": "view",
      "type": "function"
    },
    {
      "constant": false,
      "inputs": [
        {
          "name": "_spender",
          "type": "address"
        },
        {
          "name": "_value",
          "type": "uint256"
        }
      ],
      "name": "approve",
      "outputs": [
        {
          "name": "",
          "type": "bool"
        }
      ],
      "payable": false,
      "stateMutability": "nonpayable",
      "type": "function"
    },
    {
      "constant": true,
      "inputs": [
        {
          "name": "_titanName",
          "type": "bytes32"
        },
        {
          "name": "_cur",
          "type": "bytes32"
        }
      ],
      "name": "getPublicKeyByName",
      "outputs": [
        {
          "name": "_publicKey",
          "type": "bytes32"
        }
      ],
      "payable": false,
      "stateMutability": "view",
      "type": "function"
    },
    {
      "constant": true,
      "inputs": [],
      "name": "totalSupply",
      "outputs": [
        {
          "name": "",
          "type": "uint256"
        }
      ],
      "payable": false,
      "stateMutability": "view",
      "type": "function"
    },
    {
      "constant": false,
      "inputs": [
        {
          "name": "_from",
          "type": "address"
        },
        {
          "name": "_to",
          "type": "address"
        },
        {
          "name": "_value",
          "type": "uint256"
        }
      ],
      "name": "transferFrom",
      "outputs": [
        {
          "name": "",
          "type": "bool"
        }
      ],
      "payable": false,
      "stateMutability": "nonpayable",
      "type": "function"
    },
    {
      "constant": true,
      "inputs": [],
      "name": "INITIAL_SUPPLY",
      "outputs": [
        {
          "name": "",
          "type": "uint256"
        }
      ],
      "payable": false,
      "stateMutability": "view",
      "type": "function"
    },
    {
      "constant": true,
      "inputs": [],
      "name": "decimals",
      "outputs": [
        {
          "name": "",
          "type": "uint256"
        }
      ],
      "payable": false,
      "stateMutability": "view",
      "type": "function"
    },
    {
      "constant": true,
      "inputs": [
        {
          "name": "_titanName",
          "type": "bytes32"
        }
      ],
      "name": "isNameAvailable",
      "outputs": [
        {
          "name": "",
          "type": "bool"
        }
      ],
      "payable": false,
      "stateMutability": "view",
      "type": "function"
    },
    {
      "constant": true,
      "inputs": [],
      "name": "userLogin",
      "outputs": [
        {
          "name": "",
          "type": "bytes32"
        },
        {
          "name": "",
          "type": "bytes32"
        },
        {
          "name": "",
          "type": "bytes32"
        }
      ],
      "payable": false,
      "stateMutability": "view",
      "type": "function"
    },
    {
      "constant": false,
      "inputs": [
        {
          "name": "_firstName",
          "type": "bytes32"
        },
        {
          "name": "_lastName",
          "type": "bytes32"
        },
        {
          "name": "_email",
          "type": "bytes32"
        }
      ],
      "name": "userUpdate",
      "outputs": [],
      "payable": false,
      "stateMutability": "nonpayable",
      "type": "function"
    },
    {
      "constant": true,
      "inputs": [
        {
          "name": "_cur",
          "type": "bytes32"
        }
      ],
      "name": "getPublicKeysByCur",
      "outputs": [
        {
          "name": "_publicKeys",
          "type": "bytes32[]"
        }
      ],
      "payable": false,
      "stateMutability": "view",
      "type": "function"
    },
    {
      "constant": false,
      "inputs": [
        {
          "name": "_spender",
          "type": "address"
        },
        {
          "name": "_subtractedValue",
          "type": "uint256"
        }
      ],
      "name": "decreaseApproval",
      "outputs": [
        {
          "name": "",
          "type": "bool"
        }
      ],
      "payable": false,
      "stateMutability": "nonpayable",
      "type": "function"
    },
    {
      "constant": true,
      "inputs": [
        {
          "name": "",
          "type": "uint256"
        }
      ],
      "name": "validCurrencies",
      "outputs": [
        {
          "name": "",
          "type": "bytes32"
        }
      ],
      "payable": false,
      "stateMutability": "view",
      "type": "function"
    },
    {
      "constant": true,
      "inputs": [
        {
          "name": "_owner",
          "type": "address"
        }
      ],
      "name": "balanceOf",
      "outputs": [
        {
          "name": "balance",
          "type": "uint256"
        }
      ],
      "payable": false,
      "stateMutability": "view",
      "type": "function"
    },
    {
      "constant": true,
      "inputs": [],
      "name": "symbol",
      "outputs": [
        {
          "name": "",
          "type": "bytes32"
        }
      ],
      "payable": false,
      "stateMutability": "view",
      "type": "function"
    },
    {
      "constant": false,
      "inputs": [
        {
          "name": "_titanName",
          "type": "bytes32"
        }
      ],
      "name": "insertNewName",
      "outputs": [],
      "payable": false,
      "stateMutability": "nonpayable",
      "type": "function"
    },
    {
      "constant": false,
      "inputs": [
        {
          "name": "_firstName",
          "type": "bytes32"
        },
        {
          "name": "_lastName",
          "type": "bytes32"
        },
        {
          "name": "_email",
          "type": "bytes32"
        }
      ],
      "name": "userSignUp",
      "outputs": [],
      "payable": false,
      "stateMutability": "nonpayable",
      "type": "function"
    },
    {
      "constant": false,
      "inputs": [
        {
          "name": "_to",
          "type": "address"
        },
        {
          "name": "_value",
          "type": "uint256"
        }
      ],
      "name": "transfer",
      "outputs": [
        {
          "name": "",
          "type": "bool"
        }
      ],
      "payable": false,
      "stateMutability": "nonpayable",
      "type": "function"
    },
    {
      "constant": false,
      "inputs": [
        {
          "name": "_spender",
          "type": "address"
        },
        {
          "name": "_addedValue",
          "type": "uint256"
        }
      ],
      "name": "increaseApproval",
      "outputs": [
        {
          "name": "",
          "type": "bool"
        }
      ],
      "payable": false,
      "stateMutability": "nonpayable",
      "type": "function"
    },
    {
      "constant": true,
      "inputs": [
        {
          "name": "_owner",
          "type": "address"
        },
        {
          "name": "_spender",
          "type": "address"
        }
      ],
      "name": "allowance",
      "outputs": [
        {
          "name": "",
          "type": "uint256"
        }
      ],
      "payable": false,
      "stateMutability": "view",
      "type": "function"
    },
    {
      "constant": true,
      "inputs": [],
      "name": "getNamesOfUser",
      "outputs": [
        {
          "name": "_names",
          "type": "bytes32[]"
        }
      ],
      "payable": false,
      "stateMutability": "view",
      "type": "function"
    },
    {
      "constant": false,
      "inputs": [
        {
          "name": "_publicKey",
          "type": "bytes32"
        },
        {
          "name": "_cur",
          "type": "bytes32"
        },
        {
          "name": "_keyName",
          "type": "bytes32"
        },
        {
          "name": "_isStandard",
          "type": "uint256"
        }
      ],
      "name": "addPublicKeyToUser",
      "outputs": [],
      "payable": false,
      "stateMutability": "nonpayable",
      "type": "function"
    },
    {
      "anonymous": false,
      "inputs": [
        {
          "indexed": true,
          "name": "_userAddress",
          "type": "address"
        },
        {
          "indexed": false,
          "name": "_firstName",
          "type": "bytes32"
        },
        {
          "indexed": false,
          "name": "_lastName",
          "type": "bytes32"
        },
        {
          "indexed": true,
          "name": "_email",
          "type": "bytes32"
        }
      ],
      "name": "UserSignedUp",
      "type": "event"
    },
    {
      "anonymous": false,
      "inputs": [
        {
          "indexed": true,
          "name": "_userAddress",
          "type": "address"
        },
        {
          "indexed": false,
          "name": "_firstName",
          "type": "bytes32"
        },
        {
          "indexed": false,
          "name": "_lastName",
          "type": "bytes32"
        },
        {
          "indexed": true,
          "name": "_email",
          "type": "bytes32"
        }
      ],
      "name": "UserUpdatedProfile",
      "type": "event"
    },
    {
      "anonymous": false,
      "inputs": [
        {
          "indexed": true,
          "name": "owner",
          "type": "address"
        },
        {
          "indexed": true,
          "name": "spender",
          "type": "address"
        },
        {
          "indexed": false,
          "name": "value",
          "type": "uint256"
        }
      ],
      "name": "Approval",
      "type": "event"
    },
    {
      "anonymous": false,
      "inputs": [
        {
          "indexed": true,
          "name": "from",
          "type": "address"
        },
        {
          "indexed": true,
          "name": "to",
          "type": "address"
        },
        {
          "indexed": false,
          "name": "value",
          "type": "uint256"
        }
      ],
      "name": "Transfer",
      "type": "event"
    }
  ],
  "bytecode": "0x60606040527f546974616e4b65790000000000000000000000000000000000000000000000006003906000191690557f544954414e000000000000000000000000000000000000000000000000000000600490600019169055600a6005556305f5e100600655341561007057600080fd5b6123a88061007f6000396000f300606060405260043610610128576000357c0100000000000000000000000000000000000000000000000000000000900463ffffffff16806306fdde031461012d578063095ea7b31461015e5780630f3ff8bb146101b857806318160ddd1461020857806323b872dd146102315780632ff2e9dc146102aa578063313ce567146102d357806341f5947b146102fc5780634790a62d1461033b578063563560f41461038a57806359793a4c146103cb57806366188463146104475780636c2f4cb1146104a157806370a08231146104e057806395d89b411461052d5780639d6a273e1461055e578063a26c065a14610585578063a9059cbb146105c6578063d73dd62314610620578063dd62ed3e1461067a578063f2d6ae54146106e6578063f8fde97914610750575b600080fd5b341561013857600080fd5b61014061079a565b60405180826000191660001916815260200191505060405180910390f35b341561016957600080fd5b61019e600480803573ffffffffffffffffffffffffffffffffffffffff169060200190919080359060200190919050506107a0565b604051808215151515815260200191505060405180910390f35b34156101c357600080fd5b6101ea60048080356000191690602001909190803560001916906020019091905050610892565b60405180826000191660001916815260200191505060405180910390f35b341561021357600080fd5b61021b610ac3565b6040518082815260200191505060405180910390f35b341561023c57600080fd5b610290600480803573ffffffffffffffffffffffffffffffffffffffff1690602001909190803573ffffffffffffffffffffffffffffffffffffffff16906020019091908035906020019091905050610ac9565b604051808215151515815260200191505060405180910390f35b34156102b557600080fd5b6102bd610e88565b6040518082815260200191505060405180910390f35b34156102de57600080fd5b6102e6610e8e565b6040518082815260200191505060405180910390f35b341561030757600080fd5b610321600480803560001916906020019091905050610e94565b604051808215151515815260200191505060405180910390f35b341561034657600080fd5b61034e610ec9565b60405180846000191660001916815260200183600019166000191681526020018260001916600019168152602001935050505060405180910390f35b341561039557600080fd5b6103c960048080356000191690602001909190803560001916906020019091908035600019169060200190919050506110a6565b005b34156103d657600080fd5b6103f0600480803560001916906020019091905050611291565b6040518080602001828103825283818151815260200191508051906020019060200280838360005b83811015610433578082015181840152602081019050610418565b505050509050019250505060405180910390f35b341561045257600080fd5b610487600480803573ffffffffffffffffffffffffffffffffffffffff1690602001909190803590602001909190505061140a565b604051808215151515815260200191505060405180910390f35b34156104ac57600080fd5b6104c2600480803590602001909190505061169b565b60405180826000191660001916815260200191505060405180910390f35b34156104eb57600080fd5b610517600480803573ffffffffffffffffffffffffffffffffffffffff169060200190919050506116bf565b6040518082815260200191505060405180910390f35b341561053857600080fd5b610540611708565b60405180826000191660001916815260200191505060405180910390f35b341561056957600080fd5b61058360048080356000191690602001909190505061170e565b005b341561059057600080fd5b6105c46004808035600019169060200190919080356000191690602001909190803560001916906020019091905050611882565b005b34156105d157600080fd5b610606600480803573ffffffffffffffffffffffffffffffffffffffff16906020019091908035906020019091905050611acc565b604051808215151515815260200191505060405180910390f35b341561062b57600080fd5b610660600480803573ffffffffffffffffffffffffffffffffffffffff16906020019091908035906020019091905050611cf0565b604051808215151515815260200191505060405180910390f35b341561068557600080fd5b6106d0600480803573ffffffffffffffffffffffffffffffffffffffff1690602001909190803573ffffffffffffffffffffffffffffffffffffffff16906020019091905050611eec565b6040518082815260200191505060405180910390f35b34156106f157600080fd5b6106f9611f73565b6040518080602001828103825283818151815260200191508051906020019060200280838360005b8381101561073c578082015181840152602081019050610721565b505050509050019250505060405180910390f35b341561075b57600080fd5b61079860048080356000191690602001909190803560001916906020019091908035600019169060200190919080359060200190919050506120b2565b005b60035481565b600081600260003373ffffffffffffffffffffffffffffffffffffffff1673ffffffffffffffffffffffffffffffffffffffff16815260200190815260200160002060008573ffffffffffffffffffffffffffffffffffffffff1673ffffffffffffffffffffffffffffffffffffffff168152602001908152602001600020819055508273ffffffffffffffffffffffffffffffffffffffff163373ffffffffffffffffffffffffffffffffffffffff167f8c5be1e5ebec7d5bd14f71427d1e84f3dd0314c0f7b2291e5b200ac8c7c3b925846040518082815260200191505060405180910390a36001905092915050565b600080600080600060096000886000191660001916815260200190815260200160002060000160009054906101000a900473ffffffffffffffffffffffffffffffffffffffff169350600860008573ffffffffffffffffffffffffffffffffffffffff1673ffffffffffffffffffffffffffffffffffffffff16815260200190815260200160002060060160008760001916600019168152602001908152602001600020600001805490509250600090505b82811015610a9257600860008573ffffffffffffffffffffffffffffffffffffffff1673ffffffffffffffffffffffffffffffffffffffff16815260200190815260200160002060060160008760001916600019168152602001908152602001600020600001818154811015156109b757fe5b90600052602060002090015491506002600860008673ffffffffffffffffffffffffffffffffffffffff1673ffffffffffffffffffffffffffffffffffffffff1681526020019081526020016000206007016000848152602001908152602001600020600101541415610a8557600860008573ffffffffffffffffffffffffffffffffffffffff1673ffffffffffffffffffffffffffffffffffffffff1681526020019081526020016000206007016000838152602001908152602001600020600301549450849450610ab9565b8080600101915050610944565b7f4b65696e205374616e64617264204b65792068696e7465726c6567740000000094508494505b5050505092915050565b60005481565b60008073ffffffffffffffffffffffffffffffffffffffff168373ffffffffffffffffffffffffffffffffffffffff1614151515610b0657600080fd5b600160008573ffffffffffffffffffffffffffffffffffffffff1673ffffffffffffffffffffffffffffffffffffffff168152602001908152602001600020548211151515610b5457600080fd5b600260008573ffffffffffffffffffffffffffffffffffffffff1673ffffffffffffffffffffffffffffffffffffffff16815260200190815260200160002060003373ffffffffffffffffffffffffffffffffffffffff1673ffffffffffffffffffffffffffffffffffffffff168152602001908152602001600020548211151515610bdf57600080fd5b610c3182600160008773ffffffffffffffffffffffffffffffffffffffff1673ffffffffffffffffffffffffffffffffffffffff1681526020019081526020016000205461228f90919063ffffffff16565b600160008673ffffffffffffffffffffffffffffffffffffffff1673ffffffffffffffffffffffffffffffffffffffff16815260200190815260200160002081905550610cc682600160008673ffffffffffffffffffffffffffffffffffffffff1673ffffffffffffffffffffffffffffffffffffffff168152602001908152602001600020546122a890919063ffffffff16565b600160008573ffffffffffffffffffffffffffffffffffffffff1673ffffffffffffffffffffffffffffffffffffffff16815260200190815260200160002081905550610d9882600260008773ffffffffffffffffffffffffffffffffffffffff1673ffffffffffffffffffffffffffffffffffffffff16815260200190815260200160002060003373ffffffffffffffffffffffffffffffffffffffff1673ffffffffffffffffffffffffffffffffffffffff1681526020019081526020016000205461228f90919063ffffffff16565b600260008673ffffffffffffffffffffffffffffffffffffffff1673ffffffffffffffffffffffffffffffffffffffff16815260200190815260200160002060003373ffffffffffffffffffffffffffffffffffffffff1673ffffffffffffffffffffffffffffffffffffffff168152602001908152602001600020819055508273ffffffffffffffffffffffffffffffffffffffff168473ffffffffffffffffffffffffffffffffffffffff167fddf252ad1be2c89b69c2b068fc378daa952ba7f163c4a11628f55a4df523b3ef846040518082815260200191505060405180910390a3600190509392505050565b60065481565b60055481565b600060096000836000191660001916815260200190815260200160002060000160149054906101000a900460ff169050919050565b600080600080600102600860003373ffffffffffffffffffffffffffffffffffffffff1673ffffffffffffffffffffffffffffffffffffffff168152602001908152602001600020600001546000191614158015610f7157506000600102600860003373ffffffffffffffffffffffffffffffffffffffff1673ffffffffffffffffffffffffffffffffffffffff168152602001908152602001600020600101546000191614155b8015610fc757506000600102600860003373ffffffffffffffffffffffffffffffffffffffff1673ffffffffffffffffffffffffffffffffffffffff168152602001908152602001600020600201546000191614155b1515610fd257600080fd5b600860003373ffffffffffffffffffffffffffffffffffffffff1673ffffffffffffffffffffffffffffffffffffffff16815260200190815260200160002060000154600860003373ffffffffffffffffffffffffffffffffffffffff1673ffffffffffffffffffffffffffffffffffffffff16815260200190815260200160002060010154600860003373ffffffffffffffffffffffffffffffffffffffff1673ffffffffffffffffffffffffffffffffffffffff16815260200190815260200160002060020154925092509250909192565b6000600102600860003373ffffffffffffffffffffffffffffffffffffffff1673ffffffffffffffffffffffffffffffffffffffff16815260200190815260200160002060000154600019161415801561114a57506000600102600860003373ffffffffffffffffffffffffffffffffffffffff1673ffffffffffffffffffffffffffffffffffffffff168152602001908152602001600020600101546000191614155b80156111a057506000600102600860003373ffffffffffffffffffffffffffffffffffffffff1673ffffffffffffffffffffffffffffffffffffffff168152602001908152602001600020600201546000191614155b15156111ab57600080fd5b82600860003373ffffffffffffffffffffffffffffffffffffffff1673ffffffffffffffffffffffffffffffffffffffff168152602001908152602001600020600001816000191690555081600860003373ffffffffffffffffffffffffffffffffffffffff1673ffffffffffffffffffffffffffffffffffffffff168152602001908152602001600020600101816000191690555080600860003373ffffffffffffffffffffffffffffffffffffffff1673ffffffffffffffffffffffffffffffffffffffff1681526020019081526020016000206002018160001916905550505050565b6112996122c6565b600080600860003373ffffffffffffffffffffffffffffffffffffffff1673ffffffffffffffffffffffffffffffffffffffff168152602001908152602001600020600601600085600019166000191681526020019081526020016000206000018054905091508160405180591061130e5750595b90808252806020026020018201604052509250600082141561132f57600080fd5b600090505b8181101561140057600a600860003373ffffffffffffffffffffffffffffffffffffffff1673ffffffffffffffffffffffffffffffffffffffff16815260200190815260200160002060060160008660001916600019168152602001908152602001600020600001828154811015156113a957fe5b9060005260206000209001548154811015156113c157fe5b90600052602060002090015483828151811015156113db57fe5b9060200190602002019060001916908160001916815250508080600101915050611334565b8292505050919050565b600080600260003373ffffffffffffffffffffffffffffffffffffffff1673ffffffffffffffffffffffffffffffffffffffff16815260200190815260200160002060008573ffffffffffffffffffffffffffffffffffffffff1673ffffffffffffffffffffffffffffffffffffffff1681526020019081526020016000205490508083111561151b576000600260003373ffffffffffffffffffffffffffffffffffffffff1673ffffffffffffffffffffffffffffffffffffffff16815260200190815260200160002060008673ffffffffffffffffffffffffffffffffffffffff1673ffffffffffffffffffffffffffffffffffffffff168152602001908152602001600020819055506115af565b61152e838261228f90919063ffffffff16565b600260003373ffffffffffffffffffffffffffffffffffffffff1673ffffffffffffffffffffffffffffffffffffffff16815260200190815260200160002060008673ffffffffffffffffffffffffffffffffffffffff1673ffffffffffffffffffffffffffffffffffffffff168152602001908152602001600020819055505b8373ffffffffffffffffffffffffffffffffffffffff163373ffffffffffffffffffffffffffffffffffffffff167f8c5be1e5ebec7d5bd14f71427d1e84f3dd0314c0f7b2291e5b200ac8c7c3b925600260003373ffffffffffffffffffffffffffffffffffffffff1673ffffffffffffffffffffffffffffffffffffffff16815260200190815260200160002060008873ffffffffffffffffffffffffffffffffffffffff1673ffffffffffffffffffffffffffffffffffffffff168152602001908152602001600020546040518082815260200191505060405180910390a3600191505092915050565b6007818154811015156116aa57fe5b90600052602060002090016000915090505481565b6000600160008373ffffffffffffffffffffffffffffffffffffffff1673ffffffffffffffffffffffffffffffffffffffff168152602001908152602001600020549050919050565b60045481565b6001151560096000836000191660001916815260200190815260200160002060000160149054906101000a900460ff161515141561174b57600080fd5b3360096000836000191660001916815260200190815260200160002060000160006101000a81548173ffffffffffffffffffffffffffffffffffffffff021916908373ffffffffffffffffffffffffffffffffffffffff160217905550600160096000836000191660001916815260200190815260200160002060000160146101000a81548160ff021916908315150217905550600b80548060010182816117f391906122da565b916000526020600020900160008390919091509060001916905550600860003373ffffffffffffffffffffffffffffffffffffffff1673ffffffffffffffffffffffffffffffffffffffff16815260200190815260200160002060050180548060010182816118629190612306565b916000526020600020900160006001600b80549050039091909150555050565b6000600102600860003373ffffffffffffffffffffffffffffffffffffffff1673ffffffffffffffffffffffffffffffffffffffff168152602001908152602001600020600001546000191614156119205782600860003373ffffffffffffffffffffffffffffffffffffffff1673ffffffffffffffffffffffffffffffffffffffff16815260200190815260200160002060000181600019169055505b6000600102600860003373ffffffffffffffffffffffffffffffffffffffff1673ffffffffffffffffffffffffffffffffffffffff168152602001908152602001600020600101546000191614156119be5781600860003373ffffffffffffffffffffffffffffffffffffffff1673ffffffffffffffffffffffffffffffffffffffff16815260200190815260200160002060010181600019169055505b6000600102600860003373ffffffffffffffffffffffffffffffffffffffff1673ffffffffffffffffffffffffffffffffffffffff16815260200190815260200160002060020154600019161415611a5c5780600860003373ffffffffffffffffffffffffffffffffffffffff1673ffffffffffffffffffffffffffffffffffffffff16815260200190815260200160002060020181600019169055505b80600019163373ffffffffffffffffffffffffffffffffffffffff167f4a879d5279d3ec63fb0e922f8d4786887487b0312b109b8049976efccc0c99aa858560405180836000191660001916815260200182600019166000191681526020019250505060405180910390a3505050565b60008073ffffffffffffffffffffffffffffffffffffffff168373ffffffffffffffffffffffffffffffffffffffff1614151515611b0957600080fd5b600160003373ffffffffffffffffffffffffffffffffffffffff1673ffffffffffffffffffffffffffffffffffffffff168152602001908152602001600020548211151515611b5757600080fd5b611ba982600160003373ffffffffffffffffffffffffffffffffffffffff1673ffffffffffffffffffffffffffffffffffffffff1681526020019081526020016000205461228f90919063ffffffff16565b600160003373ffffffffffffffffffffffffffffffffffffffff1673ffffffffffffffffffffffffffffffffffffffff16815260200190815260200160002081905550611c3e82600160008673ffffffffffffffffffffffffffffffffffffffff1673ffffffffffffffffffffffffffffffffffffffff168152602001908152602001600020546122a890919063ffffffff16565b600160008573ffffffffffffffffffffffffffffffffffffffff1673ffffffffffffffffffffffffffffffffffffffff168152602001908152602001600020819055508273ffffffffffffffffffffffffffffffffffffffff163373ffffffffffffffffffffffffffffffffffffffff167fddf252ad1be2c89b69c2b068fc378daa952ba7f163c4a11628f55a4df523b3ef846040518082815260200191505060405180910390a36001905092915050565b6000611d8182600260003373ffffffffffffffffffffffffffffffffffffffff1673ffffffffffffffffffffffffffffffffffffffff16815260200190815260200160002060008673ffffffffffffffffffffffffffffffffffffffff1673ffffffffffffffffffffffffffffffffffffffff168152602001908152602001600020546122a890919063ffffffff16565b600260003373ffffffffffffffffffffffffffffffffffffffff1673ffffffffffffffffffffffffffffffffffffffff16815260200190815260200160002060008573ffffffffffffffffffffffffffffffffffffffff1673ffffffffffffffffffffffffffffffffffffffff168152602001908152602001600020819055508273ffffffffffffffffffffffffffffffffffffffff163373ffffffffffffffffffffffffffffffffffffffff167f8c5be1e5ebec7d5bd14f71427d1e84f3dd0314c0f7b2291e5b200ac8c7c3b925600260003373ffffffffffffffffffffffffffffffffffffffff1673ffffffffffffffffffffffffffffffffffffffff16815260200190815260200160002060008773ffffffffffffffffffffffffffffffffffffffff1673ffffffffffffffffffffffffffffffffffffffff168152602001908152602001600020546040518082815260200191505060405180910390a36001905092915050565b6000600260008473ffffffffffffffffffffffffffffffffffffffff1673ffffffffffffffffffffffffffffffffffffffff16815260200190815260200160002060008373ffffffffffffffffffffffffffffffffffffffff1673ffffffffffffffffffffffffffffffffffffffff16815260200190815260200160002054905092915050565b611f7b6122c6565b600080600860003373ffffffffffffffffffffffffffffffffffffffff1673ffffffffffffffffffffffffffffffffffffffff1681526020019081526020016000206005018054905091506000821415611fd457600080fd5b81604051805910611fe25750595b90808252806020026020018201604052509250600090505b818110156120aa57600b600860003373ffffffffffffffffffffffffffffffffffffffff1673ffffffffffffffffffffffffffffffffffffffff1681526020019081526020016000206005018281548110151561205357fe5b90600052602060002090015481548110151561206b57fe5b906000526020600020900154838281518110151561208557fe5b9060200190602002019060001916908160001916815250508080600101915050611ffa565b829250505090565b6000806001600a80548060010182816120cb91906122da565b9160005260206000209001600089909190915090600019169055039150600860003373ffffffffffffffffffffffffffffffffffffffff1673ffffffffffffffffffffffffffffffffffffffff1681526020019081526020016000206006016000866000191660001916815260200190815260200160002060000180548060010182816121589190612306565b9160005260206000209001600084909190915055905085600860003373ffffffffffffffffffffffffffffffffffffffff1673ffffffffffffffffffffffffffffffffffffffff1681526020019081526020016000206007016000848152602001908152602001600020600301816000191690555083600860003373ffffffffffffffffffffffffffffffffffffffff1673ffffffffffffffffffffffffffffffffffffffff1681526020019081526020016000206007016000848152602001908152602001600020600201816000191690555082600860003373ffffffffffffffffffffffffffffffffffffffff1673ffffffffffffffffffffffffffffffffffffffff168152602001908152602001600020600701600084815260200190815260200160002060010181905550505050505050565b600082821115151561229d57fe5b818303905092915050565b60008082840190508381101515156122bc57fe5b8091505092915050565b602060405190810160405280600081525090565b815481835581811511612301578183600052602060002091820191016123009190612332565b5b505050565b81548183558181151161232d5781836000526020600020918201910161232c9190612357565b5b505050565b61235491905b80821115612350576000816000905550600101612338565b5090565b90565b61237991905b8082111561237557600081600090555060010161235d565b5090565b905600a165627a7a72305820a9a2d9670af8a4e1a1e6b2f948f2a2a79ba389f468d6438c72a67b82ae7a4d630029",
  "source": "pragma solidity ^0.4.18;\nimport 'zeppelin-solidity/contracts/token/StandardToken.sol';\n\ncontract TitanKey is StandardToken {\n  event UserSignedUp(address indexed _userAddress, bytes32 _firstName, bytes32 _lastName, bytes32 indexed _email);\n  event UserUpdatedProfile(address indexed _userAddress, bytes32 _firstName, bytes32 _lastName, bytes32 indexed _email);\n\n  bytes32 public name = 'TitanKey';\n  bytes32 public symbol = 'TITAN';\n  uint public decimals = 10;\n  uint public INITIAL_SUPPLY = 100000000;\n  bytes32[] public validCurrencies;\n\n// DATA MODEL\n\nstruct TitanUser {\n  bytes32 firstName;\n  bytes32 lastName;\n  bytes32 email;\n  bytes32 emailHash;\n  bool userActive;\n  uint256[] nameList;  //IDs der globalen NameList, die dem Nutzer gehren.\n  mapping (bytes32 => Currency) currencies; //Jede Curreny bekommt eine eigene PublicKey Ledger; Bytes32 = curreny\n  mapping (uint256 => PublicKey) userPublicKeys; //int32= ID des Keys; PublicKey hat weitere Infos;\n}\nmapping (address => TitanUser) titanUsers; //Alle Nutzer\n\nstruct Currency {\n  uint256[] keyHashList;//IDs der globalen KeyList, die dem Nutzer gehren.\n}\n\nstruct PublicKey {\n  bool isStandard;\n  uint256 keyStatus; // 1 = Existiert; 2 = Standard\n  bytes32 keyName;\n  bytes32 key;\n}\n\nstruct TitanName {\n  //bytes32 titanName; wird nicht gebraucht, da in Mapping vorhanden\n  address owner;\n  bool nameActive;\n}\nmapping (bytes32 => TitanName) titanNames; //Namesverzeichnis: Jeder Name hat ein TitanName Object\n\n/*\nGLOBAL LEDGERs\nEvery KeyHash, Name gets an Id (index of Array).\nUse Case: This Id is also saved in the TitanUser-Object so that one user could\n          have more then one Name;\n*/\nbytes32[] allKeyHashs;\nbytes32[] allNames;\n\n\n// MODIFIER\n/* Check if user exists or terminate */\nmodifier onlyExistingUser {\n  require(!(titanUsers[msg.sender].firstName == 0x0) && !(titanUsers[msg.sender].lastName == 0x0) && !(titanUsers[msg.sender].email == 0x0));\n  _;\n}\n\n// FUNCTIONS\n\n/*\n\n@params _titanName: TitanName\n@return false, if Name is active; true, if Name is not active\n*/\n  function insertNewName(bytes32 _titanName) public {\n    //wenn der Name aktiv ist, dann darf die funktion nicht funktionieren\n    if (titanNames[_titanName].nameActive == true) revert();\n\n    titanNames[_titanName].owner = msg.sender;\n    titanNames[_titanName].nameActive = true;\n    //Ich muss den TitanName in die NamesList; Dann bekomme ich einen Index zurck. Diesen Index speicher ich bei einem Nutzer ab\n    allNames.push(_titanName); //erster Name = stelle 0; lnge 1\n    titanUsers[msg.sender].nameList.push(allNames.length-1);\n\n  }\n  /*\n\n  @params\n  @return\n  */\n  function getNamesOfUser() public constant returns (bytes32[] memory _names) {\n    uint256 _len = titanUsers[msg.sender].nameList.length;\n    if (_len == 0) revert();\n\n    _names = new bytes32[](_len);\n    for(uint i = 0; i < _len; i++){\n\n      _names[i] = allNames[titanUsers[msg.sender].nameList[i]];\n    }\n\n    return _names;\n  }\n  /*\n  Gets all keys from msg.sender and his keys per currencies\n  @params\n  @return\n  */\n  function getPublicKeysByCur(bytes32 _cur) public constant returns (bytes32[] memory _publicKeys /*,bytes32[] memory _keyName*/) {\n\n    uint256 _len = titanUsers[msg.sender].currencies[_cur].keyHashList.length;\n    _publicKeys = new bytes32[](_len);\n\n    if (_len == 0) revert();\n\n    for(uint i = 0; i < _len; i++){\n      _publicKeys[i] = allKeyHashs[titanUsers[msg.sender].currencies[_cur].keyHashList[i]];\n      //_keyName[i] = titanUsers[msg.sender].userPublicKeys[i].keyName;\n    }\n    return (_publicKeys/*,_keyNames*/);\n  }\n  /*\n\n  @params\n  @return\n  */\n  function isNameAvailable(bytes32 _titanName) public constant returns (bool) {\n    return titanNames[_titanName].nameActive;\n  }\n\n  function addPublicKeyToUser(bytes32 _publicKey, bytes32 _cur, bytes32 _keyName, uint256 _isStandard) public {\n      //Ich muss den TitanName in die NamesList; Dann bekomme ich einen Index zurck. Diesen Index speicher ich bei einem Nutzer ab\n      //Hinzufgen des Keys in globale Ledger\n    uint256 _keyIndex = allKeyHashs.push(_publicKey)-1;\n    uint256 _idOfCurKeyHashList = titanUsers[msg.sender].currencies[_cur].keyHashList.push(_keyIndex); //erster Key = _keyIndex 0\n    titanUsers[msg.sender].userPublicKeys[_keyIndex].key =_publicKey;\n    titanUsers[msg.sender].userPublicKeys[_keyIndex].keyName =_keyName;\n    titanUsers[msg.sender].userPublicKeys[_keyIndex].keyStatus =_isStandard;\n\n  }\n\n  function getPublicKeyByName (bytes32 _titanName, bytes32 _cur) public constant returns (bytes32 _publicKey ) {\n    address _owner = titanNames[_titanName].owner;\n    uint256 _len = titanUsers[_owner].currencies[_cur].keyHashList.length; //Beispiel: 1 Key, lenght = 1; index 0\n\n    uint256 j;\n    for(uint i = 0; i < _len; i++){\n\n      j = titanUsers[_owner].currencies[_cur].keyHashList[i]; //1. durchlauf i = 0; j = 1 //_keyIndex; Need = 0;\n\n      if(titanUsers[_owner].userPublicKeys[j].keyStatus == 2) {\n        // j = Die Id des zu untersuchenden Keys im Globalen Verzeichnis\n        return _publicKey = titanUsers[_owner].userPublicKeys[j].key;\n      }\n    }\n    return _publicKey = \"Kein Standard Key hinterlegt\";\n      /*Nutzer hat genau einen Key. Es wird in der Tabelle des Nutzers nach der ID seines Keys in der globalen\n      Keyliste gesucht und dieser wird zurckgegeben*/\n  }\n\n  function isValidCurreny(bytes32 _cur) internal constant returns (bool) {\n    validCurrencies[0] = 'btc';\n    validCurrencies[1] = 'etc';\n    validCurrencies[2] = 'iota';\n    validCurrencies[3] = 'eos';\n    for(uint i = 0; i < validCurrencies.length;i++) {\n      if(validCurrencies[i] == _cur) return true;\n    }\n    return false;\n  }\n\n  // USER - Functions\n\n    function userSignUp(bytes32 _firstName, bytes32 _lastName, bytes32 _email) public {\n      if (titanUsers[msg.sender].firstName == 0x0) titanUsers[msg.sender].firstName = _firstName;\n      if (titanUsers[msg.sender].lastName == 0x0) titanUsers[msg.sender].lastName = _lastName;\n      if (titanUsers[msg.sender].email == 0x0) titanUsers[msg.sender].email = _email;\n\n       UserSignedUp(msg.sender, _firstName, _lastName, _email);\n    }\n\n    function userUpdate(bytes32 _firstName, bytes32 _lastName, bytes32 _email) onlyExistingUser public {\n      titanUsers[msg.sender].firstName = _firstName;\n      titanUsers[msg.sender].lastName = _lastName;\n      titanUsers[msg.sender].email = _email;\n    }\n\n    function userLogin() external view onlyExistingUser returns (bytes32, bytes32, bytes32)\n    {\n      return (titanUsers[msg.sender].firstName, titanUsers[msg.sender].lastName, titanUsers[msg.sender].email);\n    }\n\n  }\n",
  "sourcePath": "/Users/Chris/Documents/GitHub/titankey/contracts/TitanKey.sol",
  "compiler": {
    "name": "solc",
    "version": "0.4.18+commit.9cf6e910.Emscripten.clang"
  },
  "schemaVersion": "1.0.1",
  "updatedAt": "2017-12-17T13:47:54.728Z"
}